:04000000B031532E9A
:100006002A003B08003A0319212821000D17063063
:10001600FD00FD0B0C2800008D170630FD00FD0BC2
:10002600122800008D130630FD00FD0B1828000075
:0E0036000D130630FD00FD0B1E280000080013
:100044002A003B08003A03195C28F1017108073CB7
:10005400031C49282C00BD1B322821008D13342891
:1000640021008D170630FD00FD0B362800000D170A
:100074000630FD00FD0B3C2800000D130630FD008A
:10008400FD0B422800002C00BD35F10A2828210070
:100094008D170630FD00FD0B4D2800000D170630AE
:1000A400FD00FD0B532800000D130630FD00FD0B71
:0600B400592800000800BD
:1000BA0020007008F100F0010830FC007108F40C0F
:1000CA0003186B28FC0B6428F10100340310702814
:1000DA00F40C0318F107F10CF00CFC0B6D28080066
:1000EA002A003B08003A03198D2821008D13063097
:1000FA00FD00FD0B7E2800000D170630FD00FD0BEC
:10010A00842800008D170630FD00FD0B8A280000A8
:02011A000800DB
:10011C002A0039082C003907BC0003202A003A08B1
:10012C002C00BD0022202C00BD0122202C00380800
:10013C00B03EBD0022202C003C080F3C031CAA281A
:10014C003C08BA00BB01BB283C08F200F236F23680
:10015C00F236F2367208BB007208F000F035F0355A
:10016C00F035F03570083C02BA003A08BD00222088
:10017C002C003B08103EBD00222003202A003A0828
:10018C002C00BD00222040302C00BD002220080095
:10019C002000F801F9011030FC00710DF80DF90D7B
:1001AC007408F8027508031C750FF9020318E5288A
:1001BC007408F80775080318750FF9070310F00D8C
:0801CC00F10DFC0BD328080023
:1001D40003202A003A082C00BD00222040302C00C5
:1001E400BD0022202C002F08B8002E08B9008E2054
:1001F4002C00B301320833020318B0293308300746
:1002040084000030313D85000008003A031D0C29AC
:10021400B50115293308300784000030313D8500CD
:1002240020300002B500B4013408043C031CA829A2
:100234003508F0000530F4005D202C003408F00788
:100244000030F13D433070078400BB30713D8500C0
:100254000008B6002F08023A013003190030F100FB
:100264002F08043A013003190030F0007008F1053A
:100274002F08063A013003190030F0007108F00528
:1002840003196D29B6194829B7134929B717B6199F
:100294004D2937134E29371736195229B7125329C6
:1002A400B71636195729371258293716B6185C2944
:1002B400B7115D29B715B6186129371162293715A9
:1002C40036186629B7106729B71436186B29371002
:1002D4006C2937148D2936197129B7137229B71768
:1002E40036197629371377293717B6187B29B712A9
:1002F4007C29B716B6188029371281293716361883
:100304008529B7118629B71536188A2937118B29FB
:100314003715B71037103708BD0022202A003B08D4
:10032400043A0130031D0030F1003B08053A013066
:10033400031D0030F0007108F0040319A5292C00F6
:100344003708BD0022202C00B40A1629BD01222042
:100354002C00BD0122202C00B30AFC282F0AB8006F
:100364002E08B9008E202C00B30132083302031882
:10037400732A3308300784000030313D85000008BB
:10038400003A031DC729B501D0293308300784007A
:100394000030313D850020300002B500B40134083E
:1003A400043C031C6B2A3508F0000530F4005D2082
:1003B4002C003408F0070030F13D4330700784000E
:1003C400BB30713D85000008B6002F08023A0130A9
:1003D40003190030F1002F08043A013003190030EA
:1003E400F0007008F1052F08063A013003190030B7
:1003F400F0007108F0050319282AB61B032AB71365
:10040400042AB717B61B082A3713092A3717361BCD
:100414000D2AB7120E2AB716361B122A3712132AC0
:100424003716B61A172AB711182AB715B61A1C2A7E
:1004340037111D2A3715361A212AB710222AB71464
:10044400361A262A3710272A3714502A361B2C2A04
:10045400B7132D2AB717361B312A3713322A371709
:10046400B61A362AB712372AB716B61A3B2A3712E3
:100474003C2A3716361A402AB711412AB715361ABC
:10048400452A3711462A3715B6194A2AB7104B2A76
:10049400B714B6194F2A3710502A37143708BD003D
:1004A40022202A003B08043A0130031D0030F100E9
:1004B4003B08053A0130031D0030F0007108F004D8
:1004C4000319682A2C003708BD0022202C00B40A26
:1004D400D129BD0122202C00BD0122202C00B30A09
:0604E400B7297520080095
:1004EA002C00B201053032020318852A320830077F
:1004FA0086000030313D870020308100B20A772A19
:10050A003208300786000030313D87008101B2038E
:10051A0032083007B3000030313DB4000A30F4002D
:10052A00F5012E08F0002F08F100CE207808F0001F
:10053A007908F1003030F0072C00330886003408BF
:10054A008700700881000A30F400F5012E08F000D7
:10055A002F08F100CE2070082C00AE007108AF0001
:10056A0000307106031DBB2A00307006031DBE2A27
:08057A00C02AB2038D2A08001B
:100582002C00AF012900EF010130EE002C002E08F3
:10059200AF00AF35AF35AF35AF352A00320803199A
:1005A200D52A08302C00AF0729006E080319DC2A6F
:1005B20004302C00AF0729006F080319E32A023028
:1005C2002C00AF072A0038080319E92A2C00AF0AC9
:1005D20003202A003A082C00BD0022202C002F08FC
:1005E200BD00222075200630FC003030FD00FD0BDE
:1005F200F82AFC0BF82A000004302C00AF0203207A
:100602002A003A082C00BD0022202C002F08BD0031
:10061200222075200630FC003030FD00FD0B0F2B30
:08062200FC0B0F2B0000080087
:10062A00FB14FB1F1F2BFF30F300F200F100F00058
:08063A00FA0DF20CFF3008007C
:0E064200F201F101F001F801F30100300800AF
:100650007B15FB1F322B0130F300F201F101F00199
:08066000FA0DF20CFF30080056
:08066800FA1FF2130030080034
:0A0670001D30FD00FD0B3A2B0800C1
:10067A0020002230FC00F801F901FA01FB01FC0319
:10068A000319722B0310FB0CFA0CF90CF80CF30C7F
:10069A00F20CF10CF00C031C442BFC030319642B21
:1006AA007408F80775080318750FF9077608031810
:1006BA00760FFA0777080318770FFB07482B740899
:1006CA00F80775080318750FF90776080318760FE7
:0C06DA00FA0777080318770FFB070800E9
:1006E6007408F8027508031C750FF9027608031CD6
:1006F600760FFA027708031C770FFB02F30D07301B
:10070600FC00730DF80DF90DFA0DFB0D7408731C42
:100716009A2BF8027508031C750FF9027608031C5C
:10072600760FFA027708031C770FFB02A72BF80750
:1007360075080318750FF90776080318760FFA0778
:1007460077080318770FFB07F30DFC0B842B720D4C
:10075600F80DF90DFA0DFB0D7408731CC02BF80289
:100766007508031C750FF9027608031C760FFA024A
:100776007708031C770FFB02CD2BF80775080318C3
:10078600750FF90776080318760FFA077708031826
:10079600770FFB07F20D0730FC00720DF80DF90D0F
:1007A600FA0DFB0D7408721CE62BF8027508031C83
:1007B600750FF9027608031C760FFA027708031CF8
:1007C600770FFB02F32BF80775080318750FF90767
:1007D60076080318760FFA0777080318770FFB07D2
:1007E600F20DFC0BD02B710DF80DF90DFA0DFB0D6A
:1007F6007408721C0C2CF8027508031C750FF9029C
:100806007608031C760FFA027708031C770FFB02A3
:10081600192CF80775080318750FF90776080318D9
:10082600760FFA0777080318770FFB07F10D0730E5
:10083600FC00710DF80DF90DFA0DFB0D7408711C15
:10084600322CF8027508031C750FF9027608031C92
:10085600760FFA027708031C770FFB023F2CF80786
:1008660075080318750FF90776080318760FFA0747
:1008760077080318770FFB07F10DFC0B1C2C700D86
:10088600F80DF90DFA0DFB0D7408711C582CF802C1
:100896007508031C750FF9027608031C760FFA0219
:1008A6007708031C770FFB02652CF80775080318F9
:1008B600750FF90776080318760FFA0777080318F5
:1008C600770FFB07F00D0730FC00700DF80DF90DE2
:1008D600FA0DFB0D7408701C7E2CF8027508031CBB
:1008E600750FF9027608031C760FFA027708031CC7
:1008F600770FFB028B2CF80775080318750FF9079D
:1009060076080318760FFA0777080318770FFB07A0
:10091600F00DFC0B682C70189E2C7408F8077508EF
:100926000318750FF90776080318760FFA07770884
:080936000318770FFB0708000E
:10093E00FB09FA09F909F809F80A0319F90A031962
:08094E00FA0A0319FB0A080074
:100956000330FC009530FD00FD0BAF2CFC0BAF2CDB
:02096600080087
:100968002A003B08043A0130031D0030F1003B081F
:10097800053A0130031D0030F0007108F004031936
:10098800D22C2C002508AE002408AF002608B000A1
:100998002708B1002808B200EA202C2D2A003B08BD
:1009A800023A0130031D0030F1003B08033A0130E0
:1009B800031D0030F0007108F0040319F82C07300B
:1009C800F0002C002508F4005D20043070072C008E
:1009D800AE002408AF00AF352608B0002708B100E4
:1009E8002808B200EA202C2D2A00B8012C0024087F
:1009F800F000F035F0357008083EAE00C1222C003A
:100A08002508AE00C12201302A00B8002C00A90137
:100A18002808290203182C2D2908260784000030ED
:100A2800273D85000008F1007108AE00AE36AE36ED
:100A3800AE36AE36C1222C002908260784000030C5
:100A4800273D85000008AE00C1222C00A90A0C2D04
:020A5800080094
:100A5A007C18632DFC18342D7C19822D2D2DA101B3
:100A6A007208031D542D7108F2007008F10078080D
:100A7A00F000F801A1157208031D542D7108F20047
:100A8A007008F100F001A11121167208031D542DFE
:100A9A007108F200F101A11572080319762D2108D7
:100AAA00F302031D031C7A2D0310F21B632DF80DAC
:100ABA00F00DF10DF20DF30B5A2D7A2D7B1B701CE4
:100ACA007E2DF81F7E2DF00A0319F10A0319F20A86
:100ADA00031D7E2DF20CF10CF00CF30A0319822D82
:100AEA007E2D0130FC002123852D0230FC002823B5
:100AFA00852D0430FC003423852D0830FC00152395
:040B0A0000000800DF
:100B0E002C00AA01AB012408AC002508AD008030F2
:100B1E002506F00080307002031D972D0030240250
:100B2E000318A52D0130AA000030AB002408003CAC
:100B3E00AC002508031C013EAD01AD022C08AE0031
:100B4E002D08AF002608B0002708B1007522063028
:100B5E00A8000030A9002908003C031DB82D280864
:100B6E00003C0318D32D2808260786002908273DA8
:100B7E00870001302802F0000030293BF100700898
:100B8E00260784007108273D85000008810001308A
:100B9E00A8020030A93BB22D260886002708870040
:100BAE00203081002A082B040319F92DA801A90170
:100BBE002808260784002908273D85000008203ACA
:100BCE00031DED2DA80A0319A90ADF2D0130A80275
:100BDE000030A93B2808260786002908273D8700F4
:060BEE002D30810008001B
:060BF400FB15FF300800B4
:100BFA00833021009D052C002408F000F035F035E3
:100C0A00700821009D0438239D149D1C0D2E0A2E68
:100C1A001C08F100F0011B08F0040030F104080080
:100C2A007B14FB1F202EF201FA1FFF30F200F100A5
:0A0C3A00F000FA0DF20CFF30080084
:100C4400A1017208031D372E7108F2007008F1002B
:100C5400F001A1157208031D372E7108F200F1018D
:100C6400A111211672080319452E2108F302031D50
:100C7400031C492E0310F21B4D2EF00DF10DF20D45
:100C8400F30B3D2E492E0130FC002123502E02305F
:0E0C9400FC002823502E0430FC0034230800FE
:100CA2002000FB01730803198D2E7208FA00F21757
:100CB2008E30F302F31F902EF309F30A0830730209
:100CC200031C732EF300F10D7208F100F2010830DB
:100CD2007302031C732EF300F10DF1017308031D5F
:100CE20003107B2E730803197B2E0310F20CF10CF8
:100CF200F30B762E7B1B711C852E031C852EF10AAD
:100D02000319F20AF21B9C2EFA1F9F2EF209F10917
:100D1200F10A0319F20A9F2EF201F1019F2E7B14B0
:100D2200FB1FA22EF201FA1FA22EFF30F200F100E9
:100D3200FA0DF20CA22E0130FC00A42E0030FC00B1
:100D4200A42EFF30FC00FC080319A82E15267108FA
:080D5200F0007208F100080036
:100D5A00200072087606A100F801F90173087702EB
:100D6A00031CCF2E7708FD007308F7007D08F300F7
:100D7A007608FD007208F6007D08F2007508FD008D
:100D8A007108F5007D08F1007408FD007008F40090
:100D9A007D08F00077080319482F7208FA00F21745
:100DAA00F61777087302F7000319022F0830770243
:100DBA00031CF82EF7007408F9007508F400760889
:100DCA00F500F60108307702031CF82EF7007408C4
:100DDA00F9007508F400F50108307702031CF82EB3
:100DEA007A08F200482F77080319022F0310F60C2D
:100DFA00F50CF40CF90CF70BFB2EA11F0F2FF909B8
:100E0A00F409F509F609F90A0319F40A0319F50AA6
:100E1A000319F60A7908F80774080318740FF0071B
:100E2A0075080318750FF10776080318760FF2078D
:100E3A00A11B282F031C382FF20CF10CF00CF80C14
:100E4A00F30F382F442F03183C2FF809F009F10942
:100E5A00F209F80A0319F00A0319F10A0319F20A46
:100E6A008030FA06402F0130FC002D254A2F02302F
:100E7A00FC002D254A2F0430FC0022264A2F083078
:0E0E8A00FC0015234A2F0030FC000000080079
:100E980003202A003A082C00BD00222080302C00B4
:100EA800BD0022202B006B082C00BD0022207520DD
:020EB800080030
:100EBA00A0302C00A0000F30A100A201A301A03095
:100ECA00F0000F30F1000030F2000030F3002B0088
:100EDA006B08F4006C08F500F601F7013D23700871
:100EEA002C00A0007108A1007208A2007308A300D8
:100EFA0000307302031D8B2F00307202031D8B2FEB
:100F0A0002307102031D8B2FB230700203188E2F2C
:100F1A00BD2FB230A0020230A13B0030A23BA33B5E
:100F2A000530F00070080319A02FA336A20CA10CFB
:100F3A00A00CFF3E982F2008F0002108F10022089B
:100F4A00F2002308F3000130A0020030A13BA23BCB
:100F5A00A33B70087104720473040319BD2F0000C7
:100F6A000000000000000000000000000000A02FA8
:020F7A0008006D
:100F7C0020007008F800FB01FC019E30F300FA0120
:0E0F8C00F201F101F0010230FC002D250800F9
:100F9A002000FB01FA01F9018030F800F10CF00C95
:100FAA00031CE02F7408F90775080318750FFA0770
:100FBA000318FB0A0310F01FE82F7408FA077508D4
:100FCA000318750FFB07FB0CFA0CF90CF80C031C41
:100FDA00D32F7B08F3007A08F2007908F100780829
:040FEA00F00008000B
:100FEE0012001E00F003031DF72FF103031DF72F50
:020FFE000800E9
:1010000064002A00D401D5012800311C0C282A00D4
:101010005208D4075308D53D2800B11C14282A00D3
:101020005A08D4075B08D53D2800311D1C282A002A
:101030005808D4075908D53D2800B11D24282A0096
:101040005608D4075708D53D2800311E2C282A0001
:101050006008D4076108D53D2800B11E34282A0055
:101060006B08D4076C08D53D2800311F3C282A00A6
:101070006908D4076A08D53D2A008030273AF00075
:10108000803055067002031D472854080F3C031892
:101090006E2832305407F0000030553DF1007008E2
:1010A000D4007108D50070082C00A4007108A500B8
:1010B0006230A6000530A7008031872588312A00DC
:1010C00063082B00A0002A0064082B00A1002E302A
:1010D000A2002A0065082B00A300A3282A005408B8
:1010E0002C00A4002A0055082C00A5006230A600A0
:1010F0000530A7008031872588312A006408203A0E
:101100000319862864082B00A00089282B003030A2
:10111000A0002E30A1002A006508203A0319942867
:1011200065082B00A20097282B003030A2002A006F
:101130006608203A0319A02866082B00A300A328FC
:101140002B003030A3002A006D08043A0130031D43
:101150000030F1006D08053A0130031D0030F00049
:101160007108F0040319ED2828004708013A031D0F
:10117000BD2804302B00EB00C0282B000630EB000C
:101180006B082C00A4001030A5003C30A6000430F1
:10119000A7000230A8008031B42488312B006B08EE
:1011A0002C00A4005830A5003930A6000430A70058
:1011B0000230A8008031B42488312B006B082C0049
:1011C000A4002830A500A030A6000530A7000430F8
:1011D000A8008031B424883172292A006D08023AAF
:1011E0000130031D0030F1006D08033A0130031D8A
:1011F0000030F0007108F004031936292800470870
:10120000013A031D06292B00EB0109292B000130AF
:10121000EB006B082C00A4000930A5003630A600B6
:101220000430A7000230A8008031B42488312B009C
:101230006B082C00A4000F30A5004430A600043039
:10124000A7000230A8008031B42488312B006B083D
:101250002C00A4000B30A500A030A6000530A7008C
:101260000430A8008031B424883172292A006D0826
:10127000013A031D722928004708013A031D43293A
:101280002B00EB0146292B000130EB006B082C00F2
:10129000A4000930A5004130A6000430A7000230A8
:1012A000A8008031B42488312B006B082C00A400E6
:1012B0000F30A5003F30A6000430A7000130A80081
:1012C0008031B42488312B006B082C00A4000B3033
:1012D000A500A030A6000530A7000430A80080318A
:1012E000B424883164002A00D401D50127005B1C96
:1012F0007E292A004808D4074908D53D2700DB1C71
:1013000086292A004608D4074708D53D27005B1DDB
:101310008E292A004E08D4074F08D53D2700DB1D33
:1013200096292A004C08D4074D08D53D27005B1E9E
:101330009E292A004A08D4074B08D53D2700DB1E0A
:10134000A6292A004408D4074508D53D27005B1F7D
:10135000AE292A004208D4074308D53D2A00540884
:101360002C00A4002A0055082C00A5006230A6001D
:101370000530A7008031872588312A0064082B00BA
:10138000A0002A0065082B00A1002A0066082B0097
:10139000A2002A0067082B00A3002A006D08043A67
:1013A0000130031D0030F1006D08053A0130031DC6
:1013B0000030F0007108F0040319172A28004708CC
:1013C000013A031DE72906302B00EB00EA292B0028
:1013D0000430EB006B082C00A4001030A500CF30C7
:1013E000A6000330A7000230A8008031B424883161
:1013F0002B006B082C00A4005830A500D830A600A4
:101400000330A7000230A8008031B42488312B00BB
:101410006B082C00A4002830A500A030A6000530E1
:10142000A7000430A8008031B42488319C2A2A0007
:101430006D08023A0130031D0030F1006D08033AD7
:101440000130031D0030F0007108F0040319602A18
:1014500028004708013A031D312A01302B00EB0018
:10146000332A2B00EB016B082C00A4000930A500E7
:10147000D530A6000330A7000230A8008031B42484
:1014800088312B006B082C00A4000F30A500D2304F
:10149000A6000330A7000230A8008031B4248831B0
:1014A0002B006B082C00A4000B30A500A030A60078
:1014B0000530A7000430A8008031B42488319C2A6C
:1014C0002A006D08013A031D9C2A28004708013AAA
:1014D000031D6E2A01302B00EB00702A2B00EB015C
:1014E0006B082C00A4000930A500DC30A6000330F6
:1014F000A7000230A8008031B42488312B006B088B
:101500002C00A4000F30A5002A30A6000430A7004C
:101510000130A8008031B42488312B006B082C00E6
:10152000A4000B30A500A030A6000530A7000430B1
:0C153000A8008031B42488316400080059
:10153C00813022009700171BA42AA12A2C00A40199
:10154C008031FD25883170082B00EB007108EC0010
:10155C008030033AF200803071067202031DB82A03
:10156C007008E83C031CBF2A6B08F0006C08F10003
:10157C00FE2A823022009700171BC52AC22A2C0093
:10158C00A4018031FD25883170082B00EB00710817
:10159C00EC008030033AF200803071067202031DB9
:1015AC00D92A7008E83C031CE22A6B08F0006C088E
:1015BC00F100F035F10DFE2A833022009700171B45
:1015CC00E82AE52A2C00A4018031FD258831700819
:1015DC002B00EB007108EC007008F2007108F300AE
:1015EC00F235F30DF235F30D7208F0007308F100CB
:0215FC000800E5
:1015FE007408003A031D182B7508003A031D182BAA
:10160E007608003A031D182B7708003A031D182B95
:10161E00FF30F000FF30F1007F30F200FF30F300BA
:10162E00BA2B200077080319A62B73080319AB2BCE
:10163E00720876068039FA00F217F617A1017208C1
:10164E00F8007108FC007008FD007408FD027508B2
:10165E00031C750FFC027608031C760FF802F801C6
:10166E00FC01FD01031C422B0310F20CF10CF00CDB
:10167E00F80C0130A1007708F302031C4C2B7E30CE
:10168E002107F3070318B02B512B7E302107F307E8
:10169E00031CB52B1830FA07FD0DFC0DF80DF00DDF
:1016AE00F10DF20DA10D7408F0027508031C750FF3
:1016BE00F1027608031C760FF202760DA104211CAE
:1016CE006A2B7D14752B7408F00775080318750FB7
:1016DE00F10776080318760AF2077D10FA031F3019
:1016EE007A05031D532B7B1B7D1C9C2B0310F00DC9
:1016FE00F10DF20DA10D7408F0027508031C750FA3
:10170E00F1027608031C760FF202760D21040139E0
:10171E00FD070318FC0A0319F80A031D9C2BF80C8D
:10172E00FC0CFD0CF30A0319B02BFA1FF813780802
:10173E00F2007C08F1007D08F0000030B92B01307A
:10174E008031FA258831B92B02308031212388313E
:10175E00B92B0430803115238831B92B08308031F4
:08176E00282388310000080067
:101776002000FA017308031D7A147708031DFA1472
:101786007A080319062C033A0319D12B7A18CE2BA3
:10179600F61F042C022CF21F022C042C720880392E
:1017A600FA00F21376088039F6137A060319DF2B4E
:1017B6007A080319022C042C770873020319E62B06
:1017C600031CFA2BFE2B760872020319ED2B031C61
:1017D600FA2BFE2B750871020319F42B031CFA2B46
:1017E600FE2B740870020319062C0318FE2BFA0848
:1017F6000319042C022CFA080319022C042C0314D6
:0E180600080003100800031403150800080072
:101814007408003A031D232C7508003A031D232C79
:101824007608003A031D232C7708003A031D232C65
:10183400FF30F000FF30F100FF30F2007F30F300A2
:10184400BF2C2000FC01F71BFC0AFD01FB01FA017F
:10185400F901F80173087204710470040319B82CB7
:1018640073087706A000A01BFD09F71F442CF40998
:10187400F509F609F709F40A0319F50A0319F60A32
:101884000319F70AF31F512CF009F109F209F309BE
:10189400F00A0319F10A0319F20A0319F30A730887
:1018A4007704A000A01B742C803173238831FC1BA7
:1018B400912CFD1FB82CF009F109F209F309F00A83
:1018C4000319F10A0319F20A0319F30AF809F909C9
:1018D400FA09FB09F80A0319F90A0319FA0A0319A0
:1018E400FB0AB82CF71F8B2CF31B852C7308FB0009
:1018F4007208FA007108F9007008F800F301F201A7
:10190400F101F0015B2CF301F201F101F001F00AA5
:101914000034F309F209F109F009FC17562CF80A0E
:101924000319F90A0319FA0A0319FB0A740878025D
:10193400031D5B2C75087902031D5B2C76087A0263
:10194400031D5B2C77087B02031D5B2CFB01FA0152
:10195400F901F801F00A0319F10A0319F20A03194B
:10196400F30AF31F5B2CA0012016FF34A0017C1C9A
:0C197400BE2C80319F248831003E08000A
:101980002C00A1012B006D08F1000130F00071085E
:101990000319CD2CF035FF3EC82C70082C00A00098
:1019A0002B006B0884006C08850070080005F100AE
:1019B00071080130031D0030F0006F08F0060319B4
:1019C000022D6E08003C0318ED2C8031AB248831C9
:1019D0008031AB248831EE03E12C6B0884006C0865
:1019E00085002C0020080005F10071080130031D5E
:1019F0000030F0002B006F08F0060319022DFF30B5
:0C1A00002C00A1002C002108F0000800C0
:101A0C00813022009700171B0C2D092D01302C0062
:101A1C00A4008031FD25883170082B00EB00710883
:101A2C00EC008030033AF200803071067202031D24
:101A3C00212D7008E83C031C282D6B08F0006C0865
:101A4C00F100742D823022009700171B2E2D2B2DA8
:101A5C0001302C00A4008031FD25883170082B004A
:101A6C00EB007108EC008030033AF2008030710614
:101A7C007202031D432D7008E83C031C4C2D6B08AF
:101A8C00F0006C08F100F035F10D742D833022005C
:101A9C009700171B522D4F2D01302C00A4008031C4
:101AAC00FD25883170082B00EB007108EC007108E3
:101ABC00043A031D632D00307006031D692D01309F
:101ACC002800A9006B2D2800A9012B006B08F00041
:0E1ADC006C08F100F035F10DF035F10D080049
:101AEA0020007008F8007108F0007208F10073080D
:101AFA00F200F301FB01FC019E30F300FA01F21F30
:101B0A00922DF809F009F109F209F80A0319F00A05
:101B1A000319F10A0319F20AFA170230FC0080319C
:061B2A002D2588310800A2
:101B30002000FB017308031D77080319EE2D7208BE
:101B40007606FA007708F3077E30031CAB2DF3020C
:101B50000318F32DAE2DF302031CF82D7208F800C4
:101B60007108FC007008FD00F817F6170310F20169
:101B7000F101F0011830A1007D1CC82D7408F00798
:101B800075080318750FF10776080318760FF2072A
:101B9000F20CF10CF00CF80CFC0CFD0C0310A10B7A
:101BA000BC2DF21BD82DF80DF00DF10DF20DF30345
:101BB0007B1B701CEA2DF81FEA2DF00A0319F10AAD
:101BC0000319F20A031DEA2DF20CF10CF00CF30AD2
:101BD0000319F32DFA1FF2130030FC2D0130803170
:101BE00021238831FC2D0230803115238831FC2DD2
:0C1BF000043080312823883100000800F8
:101BFC008030F00080302B006C067002031D082E24
:101C0C006B08503C031C0D2EF001F101E02E8030CE
:101C1C00F00080306C067002031D162E6B08AB3C76
:101C2C00031C1D2EF430EB070030EC3DDC2E803015
:101C3C00013AF00080306C067002031D272E6B08F1
:101C4C00483C031C2E2EFE30EB070030EC3DDC2E06
:101C5C008030023AF00080306C067002031D382E82
:101C6C006B08463C031C3F2E1830EB070130EC3D53
:101C7C00DC2E8030033AF00080306C067002031DBD
:101C8C00492E6B08343C031C502E2930EB070130D5
:101C9C00EC3DDC2E8030043AF00080306C06700293
:101CAC00031D5A2E6B084C3C031C612E3630EB077F
:101CBC000130EC3DDC2E8030083AF00080306C06B0
:101CCC007002031D6B2E6B08853C031C722EAE300C
:101CDC00EB070130EC3DDC2E80300C3AF00080300C
:101CEC006C067002031D7C2E6B08FA3C031C832EC1
:101CFC00E430EB070130EC3DDC2E8030123AF00082
:101D0C0080306C067002031D8D2E6B080F3C031C7B
:101D1C00942E1230EB070230EC3DDC2E8030163A5C
:101D2C00F00080306C067002031D9E2E6B08E63CA2
:101D3C00031CA52E8830EB070230EC3DDC2E8030E6
:101D4C001B3AF00080306C067002031DAF2E6B083E
:101D5C00EA3C031CB62EE730EB070230EC3DDC2EE0
:101D6C008030213AF00080306C067002031DC02ECA
:101D7C006B08363C031CC72E2030EB070330EC3DC0
:101D8C00DC2E8030293AF00080306C067002031D86
:101D9C00D12E6B08043C031CD82E4830EB070330C3
:101DAC00EC3DDC2E5C30EB070330EC3D6B08F000B7
:061DBC006C08F1000800B4
:101DC20020007008F8007108F000F101F201F3013F
:101DD200FB01FC019630F300FA01F01FF62EF80920
:101DE200F009F80A0319F00AFA177008F1007808E6
:0E1DF200F000F801F20180312226883108004D
:101E000028004808003A031D3E2F2B004F180B2FC7
:101E100022008D110D2F22008D152B00CF18132FAE
:101E200022000C11152F22000C152B004F191B2F0F
:101E300022000D121D2F22000D162B00CF19232F6B
:101E400022008C11252F22008C152B004F1A2B2FCE
:101E500022008D122D2F22008D162B00CF1A332F2A
:101E600022008C12352F22008C162B004F1B3B2F8B
:101E700022000C123D2F22000C16762F2B004F183B
:101E8000442F22008D15462F22008D112B00CF18D4
:101E90004C2F22000C154E2F22000C112B004F1935
:101EA000542F22000D16562F22000D122B00CF1991
:101EB0005C2F22008C155E2F22008C112B004F1AF4
:101EC000642F22008D16662F22008D122B00CF1A50
:101ED0006C2F22008C166E2F22008C122B004F1BB1
:101EE000742F22000C16762F22000C122A006E0886
:101EF0002B00EB002A006F082B00EC0080315D27DF
:041F0000883108001C
:101F04002A003B08013C03188E2FAF302B00EB0056
:101F140080314C278831A02F2A003B08013A031D49
:101F2400A02F0130B200B8012C00AE018031C122D3
:0E1F340088312C00AE018031C12288310800B6
:101F42002B004F18A72F22008E13A92F22008E17C5
:101F52002B00CF18AF2F22008E11B12F22008E1529
:101F62002B004F19B72F22000E13B92F22000E1784
:101F72002B00CF19BF2F22000E11C12F22000E15E8
:101F82002B004F1AC72F22008E12C92F22008E1645
:101F92002B00CF1ACF2F22008E10D12F22008E14A9
:101FA2002B004F1BD72F22000E12D92F22000E1604
:101FB2002A006E082B00EB002A006F082B00EC00B1
:081FC20080315D278831080021
:101FCA002B004718EB2F22000E10ED2F22000E14C3
:101FDA002A006E082B00EB002A006F082B00EC0089
:081FEA0080315D2788310800F9
:1020000064002B00500829005706031D0A285608B3
:102010002B004F060319DE282B004F082900D6009D
:102020002B0050082900D70000302B005006031D5C
:102030001B2801304F06031D5D282A006D08043A55
:102040000130031D0030F1006D08053A0130031D19
:102050000030F0007108F00403193D2802302C0014
:10206000A4004030A5006B30A6000130A70004306A
:10207000A8008031B424903159282A006D08003A14
:102080000319512801302C00A4000430A500EA30C7
:10209000A6000030A7000430A8008031B42490319D
:1020A00059282A006D08003A031D592822000D17EF
:1020B0008D172900D601D701DE282B004F082900F3
:1020C000D6002B0050082900D7002B004F082C0009
:1020D000A4002B0050082C00A5006230A60005309B
:1020E000A7008031872590312A0065082B00A000C9
:1020F0002E30A1002A0066082B00A2002A006708E3
:102100002B00A3002A006D08043A0130031D0030A3
:10211000F1006D08053A0130031D0030F000710830
:10212000F0040319A22802302C00A4004030A500BE
:10213000A030A6000530A7000430A8008031B424E8
:102140009031DE282A006D08003A0319B6280130C4
:102150002C00A4000430A500A030A6000530A70084
:102160000430A8008031B4249031DE282A006D08A4
:10217000003A031DDE288030F00080302B0050062E
:102180007002031DC5284F08963C031CCB28220073
:102190000D138D17DE288030F00080302B005006A4
:1021A0007002031DD5284F08FA3C031CDB282000D1
:1021B0000D138D13DE2820000D178D136400080009
:1021C0000D302B00EB000030EC00ED011930EE007B
:1021D000EF018831C024903170082B00CF000D3002
:1021E000EB000030EC000130ED001930EE00EF01A3
:1021F0008831C024903170082B00CF040D30EB00E3
:102200000030EC000230ED001930EE00EF018831B3
:10221000C02490312B004F08F0040319122901301B
:062220002800B5000800D3
:1022260000302B00D7000030D8004830D900853068
:10223600DA00640020004908003A0130031D00302E
:10224600F10024006B08013A0130031D0030F00054
:102256007008F10580302B005206F00080307002C5
:10226600031D3729643051020130031C0030F00091
:102276007108F0050319FD2920004808003A031DDE
:10228600F9292A006D08043A0130031D0030F100D7
:102296006D08053A0130031D0030F0007108F004A6
:1022A6000319862928003208013A031D69290430DA
:1022B6002C00A4001030A5003F30A6000030A70077
:1022C6000830A8008031B4249031772904302C00DE
:1022D600A4001030A500C430A6000030A7000830C6
:1022E600A8008031B424903106302C00A4001030B0
:1022F600A5002930A6000130A7000830A8008031CB
:10230600B4249031F9292A006D08023A0130031DE0
:102316000030F1006D08033A0130031D0030F00073
:102326007108F0040319C62928003208013A031D72
:10233600AA292C00A4010930A5002030A6000130EE
:10234600A7000830A8008031B4249031B7292C00AA
:10235600A4010930A500E030A6000030A70008302F
:10236600A8008031B424903101302C00A40009303B
:10237600A5003230A6000130A7000830A800803141
:10238600B4249031F9292A006D08013A031DF92970
:1023960028003208013A031DDE292C00A401093069
:1023A600A5004B30A6000130A7000730A8008031F9
:1023B600B4249031EB292C00A4010930A500433048
:1023C600A6000130A7000730A8008031B424903160
:1023D60001302C00A4000930A5003B30A6000130D6
:1023E600A7000730A8008031B424903101302000C6
:1023F600C800072A20004808013A031D052A88312B
:10240600002090312000C80164002B0050082100F4
:102416005F06031D112A5E082B004F0603193B2E8B
:102426002B004F082100DE002B0050082100DF00A2
:1024360028003208003A031D7C2A80302B00500603
:10244600F00080307002031D2A2A64304F02031CFC
:10245600512A05304F07F0000030503DF10070085A
:10246600CF007108D00070082C00A4007108A500E8
:102476006230A6000530A7008031872590312A00FA
:1024860064082B00A0002A0065082B00A1002A0082
:1024960066082B00A2005730A3007B2A4F082C00A9
:1024A600A4002B0050082C00A5006230A6000530C1
:1024B600A7008031872590312A006608203A031943
:1024C600682A66082B00A0006B2A2B003030A0007B
:1024D6002E30A1002A006708203A0319762A6708D9
:1024E6002B00A200792A2B003030A2005730A3001F
:1024F600C42A2B0080305006F0008030033A700268
:10250600031D872AE7304F020318A62A4F082C001E
:10251600A4002B0050082C00A5006230A600053050
:10252600A7008031872590312A0065082B00A0007E
:102536002A0066082B00A1002A0067082B00A200CB
:102546005730A300C42A4F082C00A4002B005008C3
:102556002C00A5006230A6000530A7008031872533
:1025660090312A0064082B00A0002A0065082B0081
:10257600A1002A0066082B00A2002A0067082B008B
:10258600A3002A006D08043A0130031D0030F10053
:102596006D08053A0130031D0030F0007108F004A3
:1025A6000319E32A2C00A4014030A500A030A600A0
:1025B6000530A7000430A8008031B4249031F52AF4
:1025C6002A006D08003A0319F52A2C00A4010430EC
:1025D600A500A030A6000530A7000430A800803171
:1025E600B4249031640020004808013A031D3B2EB4
:1025F60028003108003A0130031D0030F1002700A1
:102606005B08003A0130031D0030F0007108F00548
:102616000319152B2B0051082900EA002B0052083C
:102626002900EB0029006A08F0006B08F1008831E8
:10263600E126903170082B00E3007108E40072086F
:10264600E5007308E6000030F4000030F50048307D
:10265600F6008530F7006308F0006408F1006508AD
:10266600F2006608F3008831FF22903170082B00D3
:10267600DF007108E0007208E1007308E2006308F9
:10268600F4006408F5006508F6006608F7000030F7
:10269600F0000030F1004830F2008530F300883158
:1026A600FF2290312B005F08F4006008F5006108F6
:1026B600F6006208F7008031AD26903170082B00D5
:1026C600DF007108E0007208E1007308E2002800EC
:1026D6006F08F0008031BE2790312B005F08F400B0
:1026E6006008F5006108F6006208F7008831982551
:1026F60090310030F4000030F5002030F6008230D2
:10270600F7008831FF2290311F30F4008530F50044
:102716006B30F6007B30F700883198259031003019
:10272600F4000030F5000030F6007F30F70080310D
:10273600AD2690317008F4007108F5007208F600B5
:102746007308F7000030F0000030F1000030F200AE
:102756007F30F3008831FF22903170082B00E700AC
:102766007108E8007208E9007308EA006708D700F4
:102776006808D8006908D9006A08DA005108F0002C
:102786005208F1008831E126903170082B00E300F1
:102796007108E4007208E5007308E6000030F400F2
:1027A6000030F5004830F6008530F7006308F00089
:1027B6006408F1006508F2006608F3008831FF221C
:1027C60090310030F4000030F5000030F600803023
:1027D600F7008031AD26903170082B00DF007108BC
:1027E600E0007208E1007308E2006308F400640880
:1027F600F5006508F6006608F7000030F0000030C6
:10280600F1004830F2008530F3008831FF22903124
:102816002B005F08F4006008F5006108F600620806
:10282600F7008031AD2690317008F4007108F5008C
:102836007208F6007308F7000030F0000030F1006F
:102846000030F2008130F3008831FF2290317008A9
:102856002B00DB007108DC007208DD007308DE0067
:102866000030F4000030F5000030F6007F30F7004D
:102876006708F0006808F1006908F2006A08F300CA
:102886008831BB2390310130031C0030F000700802
:102896000319562C00302B00D7000030D80000302A
:1028A600D9007F30DA002B000030F4000030F5004C
:1028B6000030F6007F30F7005B08F0005C08F1009E
:1028C6005D08F2005E08F3008831BB2390310130C9
:1028D600031C0030F000700803197A2C00302B001E
:1028E600DB000030DC000030DD007F30DE002B0036
:1028F6004F08F0005008F1008831E12690312B0096
:102906005708F4005808F5005908F6005A08F70069
:102916008831982590312B005B08F4005C08F5009F
:102926005D08F6005E08F700883198259031803101
:102936005126903170082B00D3007108D400570837
:10294600F0005808F1005908F2005A08F3005B0835
:10295600F4005C08F5005D08F6005E08F7008831B3
:10296600982590310030F4000030F5004830F6002C
:102976008530F70088319825903180315126903185
:1029860070082B00D5007108D60080307106F20061
:1029960080307202031DD12C64307002031CD72CC8
:1029A6006330D5000030D60028003208003A031DF7
:1029B600382D80302B005406F00080307002031D45
:1029C600E62C64305302031C0D2D05305307F0002E
:1029D6000030543DF1007008D3007108D40070082F
:1029E6002C00A4007108A5006230A6000530A700DF
:1029F6008031872590312A0064082B00A0002A0028
:102A060065082B00A1002A0066082B00A20057309B
:102A1600A300372D53082C00A4002B0054082C00CB
:102A2600A5006230A6000530A700803187259031C9
:102A36002A006608203A0319242D66082B00A000F8
:102A4600272D2B003030A0002E30A1002A00670869
:102A5600203A0319322D67082B00A200352D2B00D2
:102A66003030A2005730A300802D2B008030540652
:102A7600F0008030033A7002031D432DE730530205
:102A86000318622D53082C00A4002B0054082C00B8
:102A9600A5006230A6000530A70080318725903159
:102AA6002A0065082B00A0002A0066082B00A1005A
:102AB6002A0067082B00A2005730A300802D530878
:102AC6002C00A4002B0054082C00A5006230A600A0
:102AD6000530A7008031872590312A0064082B0035
:102AE600A0002A0065082B00A1002A0066082B001A
:102AF600A2002A0067082B00A3002A006D08043AEA
:102B06000130031D0030F1006D08053A0130031D48
:102B16000030F0007108F0040319A02D04302C00D9
:102B2600A4004030A500A030A6000530A700043060
:102B3600A8008031B4249031D12D2A006D08023AC4
:102B46000130031D0030F1006D08033A0130031D0A
:102B56000030F0007108F0040319BF2D2C00A40109
:102B66000D30A500A030A6000530A7000430A8004F
:102B76008031B4249031D12D2A006D08013A031D0D
:102B8600D12D2C00A4010C30A500A030A6000530E4
:102B9600A7000430A8008031B42490312B005508DA
:102BA6002C00A4002B0056082C00A5006230A600BD
:102BB6000530A7008031872590312A0066082B0052
:102BC600A0002A0067082B00A1002A006D08043A1D
:102BD6000130031D0030F1006D08053A0130031D78
:102BE6000030F0007108F0040319082E06302C009E
:102BF600A4004C30A500A030A6000530A700023086
:102C0600A8008031B42490313B2E2A006D08023A88
:102C16000130031D0030F1006D08033A0130031D39
:102C26000030F0007108F0040319282E01302C0042
:102C3600A4000E30A500A030A6000530A700023083
:102C4600A8008031B42490313B2E2A006D08013A49
:102C5600031D3B2E01302C00A4000D30A500A03032
:102C6600A6000530A7000230A8008031B4249031B8
:042C760064000800EE
:102C7A0064008831062590317008CF007108D000B1
:102C8A000030D01BFF30D100D20088319E22903113
:102C9A007008D3007108D4000030D41BFF30D5006F
:102CAA00D60028003408013A031D7C2E2B004F0859
:102CBA00F0005008F1000330F4000030F5008031D4
:102CCA00CD27903170082B00EB007108EC00883199
:102CDA00FE2590318831E126903170082B00D7000B
:102CEA007108D8007208D9007308DA00992E2B00EF
:102CFA004F08F0005008F1005108F2005208F300A2
:102D0A000330F400F501F601F70180313D239031DB
:102D1A0088317525903170082B00D7007108D800CA
:102D2A007208D9007308DA0080305606F000803045
:102D3A0052067002031DAB2E51085502031DAB2E1D
:102D4A0050085402031DAB2E4F085302031CB42E25
:102D5A00E730CF000330D000D101D201FE2E530854
:102D6A004F07F0005408503DF1005508513DF2005C
:102D7A005608523DF3006430F400F501F601F701FC
:102D8A0080313D2390312B004F08F4005008F500A4
:102D9A005108F6005208F7005308F4025408F53BAC
:102DAA005508F63B5608F73B88310A2490317008DB
:102DBA002B00CF007108D0007208D1007308D2002E
:102DCA008030F400803073067402031DF62E7208F8
:102DDA00003C031DF62E7108033C031DF62E7008F5
:102DEA00E73C0318FE2EE730CF000330D000D101B4
:102DFA00D20128003308F0008031BE2790312B0021
:102E0A005708F4005808F5005908F6005A08F70060
:102E1A008831982590310030F4000030F5007A307E
:102E2A00F6008830F7008831FF22903170082B00B5
:102E3A00D7007108D8007208D9007308DA00F43094
:102E4A00F400FD30F5003430F6007F30F7008831A9
:102E5A00FF22903170082B00D7007108D800720841
:102E6A00D9007308DA0028003208013A031D662FD8
:102E7A002B005708F0005808F1005908F2005A08C8
:102E8A00F3005708F4005808F5005908F6005A08E4
:102E9A00F7008831982590310030F4000030F500B1
:102EAA004830F6008430F7008831FF2290317008EC
:102EBA002B00D7007108D8007208D9007308DA000D
:102ECA008E2F2B005708F0005808F1005908F2001D
:102EDA005A08F3005708F4005808F5005908F60094
:102EEA005A08F7008831982590310030F4000030F4
:102EFA00F5002030F6008130F7008831FF2290314A
:102F0A0070082B00D7007108D8007208D90073081E
:102F1A00DA005708F0005808F1005908F2005A0878
:102F2A00F3000030F4000030F5000030F6007E3087
:102F3A00F7008031AD26903170082B00D700710858
:102F4A00D8007208D9007308DA008031512690310E
:102F5A0070082A00DE007108DF0080307106F20076
:102F6A0080307202031DBB2F0A3070020318C22F71
:102F7A000130DC000030DD00E42F80302B005206E7
:102F8A00F00080307002031DD42F00305102031D5F
:102F9A00D42F00305002031DD42F64304F0203187F
:102FAA00DC2FE7302A00DC000330DD00E42F2B00A1
:102FBA004F082A00DC002B0050082A00DD00080018
:102FCA002000F8010830FC00700DF80D7408F802B2
:102FDA000318F12FF8070310F00DFC0BE92F080076
:102FEA002B0029082300910092019513151315143B
:062FFA001308F0000800BE
:103000002B0047082300910092012B004808230061
:1030100093001513951315150B08F0008B135530FD
:103020009600AA3096009514F01B18288B131928C7
:0C3030008B171511951C1D281A2808008C
:10303C002800B1012700DB012B00CF0188310027CC
:10304C00983127005B082B00CF008831A1279831DD
:10305C002A006E082B00EB002A006F082B00EC00F6
:08306C0080315D279831080056
:103074002B00CB01CC0164302A0050022B00C80085
:1030840000302A00513B2B00C9000130CD00003034
:10309400CE002A00DE01DF01640078302B00CA0074
:1030A400C7014A0847020318B02820008D185C287D
:1030B40076145D2876100D19612803146228031014
:1030C4007618682803186828761069287614200072
:1030D4000D186E2803146F2803107618752803182A
:1030E4007528761076287614761C82289031E02094
:1030F400983128003508013A031D8228B501942B24
:1031040090313D26983180302B004C06F000803001
:103114002A005F067002031D92285E082B004B02F2
:103124000318A4282A005E082B00CB002A005F089D
:103134002B00CC002A005C082B00CD002A005D087F
:103144002B00CE001030FC009430FD002B00FD0B52
:10315400A828FC0BA8280000C70A532864004B08C1
:103164002800AF002B004C082800B0002B004D08AD
:10317400CF004E08D00090310020983180302B00D1
:103184004E06F00080307002031DCA2864304D02E0
:10319400031CE92888318227983128002C08F00084
:1031A4008031BE27983127006208F4006308F500D7
:1031B4006408F6006508F700883198259831803155
:1031C4005126983170082800AD007108AE00803097
:1031D4002B004E06F00080302A0051067002031DB9
:1031E400F62850082B004D020130031C0030F0007B
:1031F400700827006105F50080306006F300803018
:103204002B004E067302031D0A294D0827005F0296
:103214002700013003180030F3005F082B004D0233
:10322400F100270060082B004E3BF2008030490675
:10323400F000803072067002031D222971084802D2
:10324400013003180030F00070087305F40080307A
:103254004E06F3008030270060067302031D3529F3
:103264005F082B004D022B00013003180030F300DF
:103274004D0827005F02F1002B004E082700603B39
:10328400F20080302B004906F00080307206700294
:10329400031D4E2971084802013003180030F00064
:1032A4007308F00570087404F10027006008033AFD
:1032B400031D5E29E7305F060130031D0030F00076
:1032C4007108F0047508F00503196A290130EF004C
:1032D40020008D186F297614702976100D19742921
:1032E40003147529031076187B2903187B2976109B
:1032F4007C29761420000D188129031482290310D7
:103304007618882903188829761089297614761C5A
:1033140095299031E020983128003508013A031DA1
:103324009529B501942B28002F082B00CF002800E5
:1033340030082B00D0004D08D1004E08D200903147
:103344001321983120008D18A9297614AA29761002
:103354000D19AE290314AF2903107618B5290318E3
:10336400B5297610B629761420000D18BB2903144C
:10337400BC2903107618C2290318C2297610C32960
:103384007614761CCF299031E02098312800350836
:10339400013A031DCF29B501942B280064002908A4
:1033A400013A031D942B2A006D08043A0130031DD1
:1033B4000030F1006D08053A0130031D0030F000C3
:1033C4007108F0040319B82A02302C00A40010304C
:1033D400A5002030A6000430A7000830A8008031E2
:1033E400B42498310330FB000830FC007730FD0032
:1033F400FD0BFA29FC0BFA29FB0BFA2902302C00ED
:10340400A4001030A500E630A6000330A700083061
:10341400A8008031B42498310B30FB002630FC0026
:103424005D30FD00FD0B142AFC0B142AFB0B142A3F
:1034340000000000640002302C00A4001030A5003D
:10344400C430A6000430A7000830A8008031B4249A
:1034540098310730FB001730FC006A30FD00FD0B8B
:10346400312AFC0B312AFB0B312A000064000230A4
:103474002C00A4001030A5002930A6000530A700B8
:103484000830A8008031B42498310B30FB0026307A
:10349400FC005D30FD00FD0B4D2AFC0B4D2AFB0B9F
:1034A4004D2A00000000640002302C00A4001030FB
:1034B400A5002030A6000530A7000830A800803100
:1034C400B42498310730FB001730FC006A30FD004B
:1034D400FD0B6A2AFC0B6A2AFB0B6A2A00006400B3
:1034E40002302C00A4001030A500BB30A60004302C
:1034F400A7000830A8008031B42498310B30FB00B9
:103504002630FC005D30FD00FD0B862AFC0B862A6C
:10351400FB0B862A00000000640002302C00A4008B
:103524001030A5005D30A6000430A7000830A800C4
:103534008031B42498310330FB000830FC0077302C
:10354400FD00FD0BA32AFC0BA32AFB0BA32A0230CC
:103554002C00A4001030A5005430A6000430A700AD
:103564000830A8008031B4249831862B2A006D08D5
:10357400003A0319862B01302C00A400A501663003
:10358400A6000430A7000830A8008031B424983184
:103594000330FB000830FC007730FD00FD0BD02A1F
:1035A400FC0BD02AFB0BD02A01302C00A400A5016F
:1035B400A930A6000430A7000830A8008031B42444
:1035C40098310B30FB002630FC005D30FD00FD0B14
:1035D400E92AFC0BE92AFB0BE92A0000000064003D
:1035E40001302C00A400A501A030A6000430A700DF
:1035F4000830A8008031B42498310730FB0017301C
:10360400FC006A30FD00FD0B052BFC0B052BFB0BAE
:10361400052B0000640001302C00A400A501B23089
:10362400A6000430A7000830A8008031B4249831E3
:103634000B30FB002630FC005D30FD00FD0B202B21
:10364400FC0B202BFB0B202B00000000640001303E
:103654002C00A400A5014B30A6000430A7000830BC
:10366400A8008031B42498310730FB001730FC00E7
:103674006A30FD00FD0B3C2BFC0B3C2BFB0B3C2B65
:103684000000640001302C00A400A501E130A60074
:103694000430A7000830A8008031B42498310B30DE
:1036A400FB002630FC005D30FD00FD0B572BFC0BAE
:1036B400572BFB0B572B00000000640001302C003B
:1036C400A400A501D830A6000430A7000830A80043
:1036D4008031B42498310330FB000830FC0077308B
:1036E400FD00FD0B732BFC0B732BFB0B732B0130B9
:1036F4002C00A400A501CD30A6000430A70008309A
:10370400A8008031B4249831640010302900D60018
:103714002730D7002B004D08CF004E08D000903141
:06372400002098310800AE
:10372A00710DF80DF90D7408F8027508031C750F70
:10373A00F902F00DF10D0F30FC00710DF80DF90DC5
:10374A007408701CAE2BF8027508031C750FF90279
:10375A00B32BF80775080318750FF907F00DF10D6B
:10376A00FC0BA22B7018BF2B7408F80775080318F6
:08377A00750FF90700000800BB
:103782001E2001302800C70001302B00C7008831FD
:10379200E5279831FF302B00C700C8010020FE301A
:1037A2002B00C700C8010020FD302B00C7000130EC
:1037B200C8000020FC302B00C700C8010020FB30ED
:1037C2002B00C700C801002088310020983120005A
:1037D200C80122008C130C172A00DC01DD01DE0176
:1037E200DF012700DF01E0012A006D08043A013001
:1037F200031D0030F1006D08053A0130031D003051
:10380200F0007108F0040319332C02302C00A400DC
:103812001030A500DF30A6000230A7000830A80053
:103822008031B424983164000D30FB002D30FC004F
:10383200D730FD00FD0B1B2CFC0B1B2CFB0B1B2C98
:103842000000000002302C00A4001030A50041301E
:10385200A6000330A7000830A8008031B4249831B4
:103862006400662C2A006D08003A0319632C0130AB
:103872002C00A400A5015330A6000330A700083095
:10388200A8008031B424983164000D30FB002D3043
:10389200FC00D730FD00FD0B4C2CFC0B4C2CFB0B21
:1038A2004C2C0000000001302C00A400A5014A307D
:1038B200A6000330A7000830A8008031B424983154
:1038C2006400662C22000D178D1710302900D600D7
:1038D2002730D70010302100DE002730DF003A20E9
:0238E2000800DC
:1038E40090313D26983125006F08643A03198D2CD8
:1038F400EF0A80302A003D06F00080305F06700237
:10390400031D862C5E083C0203188C2C5E08BC0048
:103914005F08BD00A52C2500EF012A003C082B0000
:10392400CF002A003D082B00D0002A005C082B00A1
:10393400D1002A005D082B00D20090311321983168
:103944002A00BC01BD012A0080305F06F2008030ED
:103954003F067202031DB02C3E085E0201300318BC
:103964000030F200803029006D06F10080302A001A
:103974005F067102031DC12C5E0829006C02290038
:10398400013003180030F1008030F00080306D0603
:103994007002031DCF2C6C08003C0130031800306A
:1039A400F0007108F0057208F00403193E2D64005C
:1039B40090313D26983125006F08643A0319F52C9F
:1039C400EF0A80302A003D06F00080305F06700266
:1039D400031DEE2C5E083C020318F42C5E08BC00A8
:1039E4005F08BD000D2D2500EF012A003C082B00C7
:1039F400CF002A003D082B00D0002A005C082B00D1
:103A0400D1002A005D082B00D20090311321983197
:103A14002A00BC01BD010D302B00EB000030EC008E
:103A2400ED010530EE000130EF008831C0249831FB
:103A340070080319202D01302600DE0026005E08E0
:103A4400013A0130031D00302B00C6000D30EB009D
:103A54000030EC00ED010530EE00EF018831C024A8
:103A640098312B004608F00503193D2DC1232A0087
:0A3A7400DC01DD013E2DA52C080049
:103A7E007408003A031D4C2D7508003A031D4C2D99
:103A8E00FF30F0007F30F100A42D2000FD01F90180
:103A9E00F801710870040319003471087506FA00F4
:103AAE00FA1BFD09FB01F51F612DF409F509F40A56
:103ABE000319F50AF11F682DF009F109F00A03192F
:103ACE00F10A71087504FA00FA1B7D2D95237B18F7
:103ADE00902DFD1F0034F009F109F00A0319F10AC7
:103AEE00F809F909F80A0319F90A0034F51F8C2DA3
:103AFE00F11B882D7108F9007008F800F101F00132
:103B0E00702DF101F001F00A0034F109F009FB0A01
:103B1E006D2DF80A0319F90A74087802031D702D29
:103B2E0075087902031D702DF901F801F00A0319C9
:0C3B3E00F10AF11F702D0000FF34080098
:103B4A0003302B00C5002700DB012B00CF01883191
:103B5A00A12798312B0045082800CA00722400309A
:103B6A002A005D06031DBB2D00305C06031DBE2D19
:103B7A006A2E1430F4000030F5005C08F0005D088D
:103B8A00F1003F2570082A005C072B00C30071086A
:103B9A002A005D3D2B00C4004508C2002B004208E4
:103BAA001F3C031C632E4208F00028004908F40059
:103BBA0080315D20983170082B00CF008831A12711
:103BCA009831722400302A005D06031DEE2D003064
:103BDA005C06031DF12D6A2E80305D06F0008030F0
:103BEA002B0044067002031DFD2D43082A005C02C7
:103BFA000318612E2A001430F4000030F5005C0826
:103C0A00F0005D08F1003F2570082A005C072B00D0
:103C1A00C30071082A005D3D2B00C4004208F00071
:103C2A0028004908F40080315D2098317008270087
:103C3A00DB002B0045082800CA0080302A005D06F8
:103C4A00F00080307002031D2C2E78305C020318BD
:103C5A002F2E632E2B0045084207F2007208C2007D
:103C6A0027004A08003A0130031D0030F1007208AB
:103C7A00093A0130031D0030F0007108F0050319FC
:103C8A004A2E08302B00C200602E27004A08003A4C
:103C9A000130031D0030F1002B004208113A0130B7
:103CAA00031D0030F0007108F0050319602E103072
:103CBA00C2000430C500622E632ED32D27005B0894
:0C3CCA002B00CF008831A12798310800A2
:103CD60003302B00C100BD0141082100E90003307B
:103CE6002B00BE001430F4000030F5002A005C08FA
:103CF600F0005D08F1003F2570082A005C072B00E4
:103D0600BF0071082A005D3D2B00C000BC012B00DE
:103D16003C081F3C031C222F3C08F00021006F08C2
:103D2600F40080315D20983170082B00CF00883177
:103D360000279831A525722400302A005D06031D50
:103D4600A62E00305C06031DA92E422F80305D068C
:103D5600F00080302B0040067002031DB52E3F0890
:103D66002A005C020318202F2A001430F4000030C9
:103D7600F5005C08F0005D08F1003F2570082A0098
:103D86005C072B00BF0071082A005D3D2B00C000B8
:103D96003C08F00021006F08F40080315D20983166
:103DA60070082800B10027005B082B00BD00410801
:103DB6002100E90028004A082B00BE0080302A00B6
:103DC6005D06F00080307002031DEB2E78305C0239
:103DD6000318EE2E222F2B0041083C07F200720832
:103DE600BC0027002B08003A0130031D0030F1000B
:103DF6007208093A0130031D0030F0007108F00521
:103E06000319092F08302B00BC001F2F27002B0891
:103E1600003A0130031D0030F1002B003C08113A36
:103E26000130031D0030F0007108F00503191F2F43
:103E36001030BC000430C100212F222F8A2E2B0007
:103E46003D082700DB00280031082B00CF00883111
:103E56000027983127005B082B00CF008831A12767
:103E660098312B003E082800CA003430FC00F1309F
:103E7600FD00FD0B3C2FFC0B3C2F00000000080052
:103E86002B00B5013408093C0318662F0A30F400EC
:103E96003408F0009031E527983170082B00B50002
:103EA6007008B500B535B535B535B5350A30F40009
:103EB6003408F0009031E52798317808F000700852
:103EC6002B00B504682F3408B5003508F00008004B
:103ED6002B002908F000F036F036F036F0360A30BE
:103EE600F40080315D2098310F302B002905F10058
:063EF6007108F00708004E
:103EFC00FD302A00B3000530B4002430B500063084
:0E3F0C00B600F03021009E009D011D1408003B
:103F1A002B00A9019031F527983170082A00BA00C0
:103F2A0001302B00A9009031F527983170082A003A
:103F3A00BB007008003A031DA92F21000D138D1331
:103F4A0022000D178D17AF2F21000D178D17220094
:063F5A000D138D13080099
:103F60002A003B08013C0318BC2FAE302B00EB00AD
:103F700080314C279831CD2F2A003B08013A031D90
:103F8000CD2FB201B8012C00AE018031C122983191
:0C3F90002C00AE018031C12298310800E5
:103F9C0064002100971217169711171597106400DB
:103FAC0023008C010C148C148D012200911393139B
:103FBC0078302100990020008C018D018E01403059
:103FCC0022008C008D018E01033021008C00073003
:103FDC008D008E017E271E149E14951324000D1443
:083FEC008D140D158B13080064
:1040000021006908F0006F08F40080315D20A031C4
:1040100070082B00BC00700828003107F4007408F9
:104020002B00BE000530F20021006F08F000F10106
:10403000720803191F28F035F10DFF3E19280130D1
:104040007002F2000030713BF30080307306F00024
:1040500080307002031D2E287408720203183C2859
:104060000530F0006F082B00BE00700803193B28D4
:10407000BE35FF3E3628BE03280031082B003C0227
:10408000031848283C08280031022B00BF004928AB
:10409000BF013F082800B1002B003F08CF00883146
:1040A0000027A03198317224A03100302A005D062B
:1040B000031D5C2800305C06031D5F28ED285C08AA
:1040C0002B00C0002A005D082B00C10021006F08F2
:1040D0002B003F07BD003D083E02031CE6283D08BB
:1040E000CF0088310027A03198317224A0310030F0
:1040F0002A005D06031D7E2800305C06031D812812
:10410000ED2880305D06F00080302B004106700203
:10411000031D8D2840082A005C02031C9C283430B3
:10412000FC00F130FD00FD0B9328FC0B93280000F0
:10413000000098317224A03180302A005D06F00022
:1041400080302B0041067002031DA92840082A0078
:104150005C02031CB8283430FC00F130FD00FD0B7C
:10416000AF28FC0BAF280000000098317224A0316A
:1041700080302A005D06F00080302B00410670027E
:10418000031DC52840082A005C020318E0282A0005
:104190005C082B00C0002A005D082B00C1003D0810
:1041A0002800B10080302A005D06F00080307002E7
:1041B000031DDC2878305C020318DF28E628E1289C
:1041C000E62821006F082B00BD076B282800310866
:0C41D0002B00CF0088310027A031080030
:1041DC0028004A08F0004908F40080315D20A03125
:1041EC0070082B00BC00700827005B07F4007408F3
:1041FC002B00BE000530F20028004908F000F10148
:10420C00720803190D29F035F10DFF3E0729013015
:10421C007002F2000030713BF30080307306F00046
:10422C0080307002031D1C297408720203182A299D
:10423C000530F00049082B00BE007008031929292D
:10424C00BE35FF3E2429BE0327005B082B003C0231
:10425C00031836293C0827005B022B00BF003729C6
:10426C00BF013F082700DB002B003F08CF0088313F
:10427C00A127A03198317224A03100302A005D06AC
:10428C00031D4A2900305C06031D4D29DB295C08FF
:10429C002B00C0002A005D082B00C1002800490833
:1042AC002B003F07BD003D083E02031CD4293D08EE
:1042BC00CF008831A127A03198317224A031003071
:1042CC002A005D06031D6C2900305C06031D6F2956
:1042DC00DB2980305D06F00080302B004106700237
:1042EC00031D7B2940082A005C02031C8A293430F8
:1042FC00FC00F130FD00FD0B8129FC0B8129000035
:10430C00000098317224A03180302A005D06F00044
:10431C0080302B0041067002031D972940082A00AB
:10432C005C02031CA6293430FC00F130FD00FD0BAF
:10433C009D29FC0B9D290000000098317224A031AE
:10434C0080302A005D06F00080302B0041067002A0
:10435C00031DB32940082A005C020318CE292A0049
:10436C005C082B00C0002A005D082B00C1003D0832
:10437C002700DB0080302A005D06F00080307002E0
:10438C00031DCA2978305C020318CD29D429CF2902
:10439C00D429280049082B00BD07592927005B08A0
:0C43AC002B00CF008831A127A0310800B1
:1043B8002A005C082B00B6002A005D082B00B70015
:1043C80098316B26A03100302A005D06031DEE29C6
:1043D80000305C06031DF42998311E20A031562BAD
:1043E80098317224A03180302A005D06F0008030B8
:1043F8007002031D012A78305C020318042A562B28
:10440800002000302A005D06031D0C2A00305C06DF
:10441800031D122A98311E20A031562B9831722480
:10442800A03180302A005D06F00080307002031D44
:104438001F2A78305C020318222A562BEE200030FF
:104448002A005D06031D2A2A00305C06031D302A57
:1044580098311E20A031562B98317224A03180301B
:104468002A005D06F00080307002031D3D2A783076
:104478005C020318402A562B80305D06F10080301C
:104488007102031D492AC8305C020130031800304C
:10449800F10080305D06F00080302B003706700296
:1044A800031D592A36082A005C022A000130031825
:1044B8000030F00070087105F3005C082B0036022C
:1044C800F1002A005D082B00373BF2008030F00035
:1044D800803072067002031D732A7108643C013033
:1044E80003180030F0007308F00503197C2A562BD6
:1044F8002A005C082B00B6002A005D082B00B700D4
:10450800280031082B00B800B90127005B082B00F0
:10451800BA00BB0128004708013A031D952AC701C4
:10452800972A0130C70098311E20A031280047087B
:104538002B00C7008831E527A0310230FB0004308A
:10454800FC00BA30FD00FD0BA72AFC0BA72AFB0BC9
:10455800A72A000098317224A03180302A005D0615
:10456800F00080307002031DBB2A78305C0203180B
:10457800BE2A562B98316B26A03100302A005D06E2
:10458800031DC82A00305C06031DCE2A98311E2060
:10459800A031562B98317224A03180302A005D0654
:1045A800F00080307002031DDB2A78305C020318AB
:1045B800DE2A562B002000302A005D06031DE62A5D
:1045C80000305C06031DEC2A98311E20A031562BC2
:1045D80098317224A03180302A005D06F0008030C6
:1045E8007002031DF92A78305C020318FC2A562B46
:1045F800EE2000302A005D06031D042B00305C0607
:10460800031D0A2B98311E20A031562B9831722495
:10461800A03180302A005D06F00080307002031D52
:10462800172B78305C0203181A2B562B80302B007E
:104638003706F00080302A005D067002031D272B24
:104648005C082B0036020318552B28004708013A4E
:10465800031D302BC701322B0130C70047082B0040
:10466800C7008831E527A0312B0038082800B100A1
:104678002B003A082700DB002B003808CF008831D0
:104688000027A03127005B082B00CF008831A12725
:10469800A0312B0036082A00DC002B0037082A003E
:0646A800DD0064000800C3
:1046AE0064002A006D08043A0130031D0030F10049
:1046BE006D08053A0130031D0030F0007108F0045A
:1046CE000319102C24006A08003A031DC22B2C007B
:1046DE00A4010830A5006030A6000230A700093002
:1046EE00A8008031B424A03102302C00A400103078
:1046FE00A5005730A6000230A7000830A800803170
:10470E00B424A03104302C00A4001030A5004E308B
:10471E00A6000230A7000830A8008031B424A031D2
:10472E0006302C00A4001630A5005E30A600003026
:10473E00A7000730A8008031B424A03164001130E6
:10474E00FB003C30FC00CB30FD00FD0BAC2BFC0B1A
:10475E00AC2BFB0BAC2B64000B30FB002630FC00AB
:10476E005D30FD00FD0BB92BFC0BB92BFB0BB92BF0
:10477E000000000064000430FB000C30FC003330FD
:10478E00FD00FD0BC82BFC0BC82BFB0BC82B000030
:10479E00000028003208013A031DE32B2C00A4016F
:1047AE001030A5005530A6000030A7000830A80034
:1047BE008031B424A031F02B2C00A4011030A500C0
:1047CE004C30A6000030A7000830A8008031B42479
:1047DE00A03102302C00A4001030A5006630A600D7
:1047EE000030A7000830A8008031B424A031270083
:1047FE00610803190F2C2C00A4017030A500C230E3
:10480E00A6000030A7000130A8008031B424A031EA
:10481E00A92C2A006D08003A0319A92C24006A0855
:10482E00003A031D522C2C00A401A501B130A600A4
:10483E000030A7001030A8008031B424A031013020
:10484E002C00A400A501A030A6000030A700103057
:10485E00A8008031B424A03164000D30FB002D304F
:10486E00FC00D730FD00FD0B3A2CFC0B3A2CFB0B59
:10487E003A2C0000000064000B30FB002630FC00D8
:10488E005D30FD00FD0B492CFC0B492CFB0B492C1C
:10489E000000000064000430FB000C30FC003330DC
:1048AE00FD00FD0B582CFC0B582CFB0B582C00005C
:1048BE0000002C00A4010830A5004A30A6000030EC
:1048CE00A7000130A8008031B424A031280032089E
:1048DE00013A031D7F2C2C00A401A5013430A60043
:1048EE000030A7000830A8008031B424A0318B2CF2
:1048FE002C00A401A5012B30A6000030A700083023
:10490E00A8008031B424A03101302C00A400A501F0
:10491E002230A6000030A7000830A8008031B42451
:10492E00A031270061080319A92C2C00A40108301E
:10493E00A5003D30A6000030A7000130A800803150
:0E494E00B424A031640088310020A03108009C
:10495C0064002500EF012A00BC01BD012600DE0128
:10496C0098317224A03180302A005D06F00080302E
:10497C007002031DC32C6E305C020318C62C9A2DDA
:10498C0098311E20A03124006B08003A031DD12C55
:10499C0088310020A0310230FB000430FC00BA301A
:1049AC00FD00FD0BD72CFC0BD72CFB0BD72C0000E0
:1049BC0098317224A0312A005C082900EA002A00F0
:1049CC005D082900EB0080302A005D06F000803085
:1049DC007002031DF32C6E305C020318F62C9A2D1A
:1049EC008030F100803041067102031DFF2C40081D
:1049FC006E3C013003180030F10080304106F000AD
:104A0C0080305D067002031D0D2D5C0840020130E4
:104A1C0003180030F0007108F0050319162D9A2DBB
:104A2C00DC2100302A005D06031D1E2D00305C06C3
:104A3C00031D242D98311E20A0319A2D80302A0080
:104A4C005D06F00080307002031D2E2D78305C0264
:104A5C000318312D9A2D26005C08053A0130031DF0
:104A6C000030F1005D08053A0130031D0030F00004
:104A7C007108F0050319432D9A2D5D08053C0318A8
:104A8C004D2D21006F08E9000130EF00002080302F
:104A9C002A005D06F00080307002031D572D78301F
:104AAC005C0203185A2D9A2D26005C08053C03184D
:104ABC00652D28004908CA000130C900EE202600E7
:104ACC005D08053A031D6E2D01302100EF007F2D8E
:104ADC0026005D08063A031D772D02302100EF00F9
:104AEC007F2D26005D08073A031D7F2D0430210021
:104AFC00EF0026005C08053A031D882D01302800C4
:104B0C00C900992D26005C08063A031D912D023030
:104B1C002800C900992D26005C08073A031D992D21
:0A4B2C0004302800C90064000800EE
:104B360064002A006D08043A0130031D0030F100BC
:104B46006D08053A0130031D0030F0007108F004CD
:104B56000319BC2D02302C00A4004030A5002030E3
:104B6600A6000330A7000430A8008031B424A03189
:104B7600D32D2A006D08003A0319D02D01302C00E0
:104B8600A4000430A500E830A6000230A7000430D7
:104B9600A8008031B424A031D32D22000D178D1723
:104BA600AE242A006D08003A031DFC2D8030F0006B
:104BB60080305D067002031DE22D5C08963C031CE6
:104BC600E82D22000D138D17FB2D8030F00080306C
:104BD6002A005D067002031DF22D5C08FA3C031CD8
:104BE600F82D20000D138D13FB2D20000D178D13AE
:104BF600112E20004808003A0130031D0030F10054
:104C060024006B08003A0130031D0030F0007108E3
:104C1600F0040319112E88310020A031FF302B003B
:104C2600C70027005B082B00C80098310020A03180
:104C3600FE302B00C700280031082B00C800983131
:104C46000020A031FD302B00C700280047082B00AC
:104C5600C80098310020A031FC302B00C700290085
:104C66006B08F0000030EB1BFF30F10070082B00E2
:104C7600C80098310020A031FB302B00C70000305F
:104C8600F4000130F50029006A08F0006B08F10015
:104C960098313F25A0317808F0007908F1007008B6
:104CA6002B00C80098310020A03110302900D60012
:104CB6002730D70010302100DE002730DF00983182
:104CC6003A20A0312A005C082700DF002A005D0890
:0E4CD6002700E00022008C130C176400080079
:104CE40007302B00A9009031F527A03170082A0065
:104CF400B70008302B00A9009031F527A0317008C7
:104D04002A00B9003B08013C03188C2EA8317825F1
:104D1400A031FF2E2A003B08013A031DFF2E01306B
:104D2400B200B80103302C00AE008031C122A031A2
:104D34001A30FC00F830FD00FD0B9E2EFC0B9E2E5D
:104D4400000003302C00AE008031C122A0310630B7
:104D5400FC003030FD00FD0BAD2EFC0BAD2E000031
:104D640003302C00AE008031C122A03102302C006F
:104D7400AE008031C122A03102302C00AE0080315F
:104D8400C122A03108302C00AE008031C122A031F4
:104D94002C00AE018031C122A03108302C00AE00BD
:104DA4008031C122A0312C00AE018031C122A0315A
:104DB40001302C00AE008031C122A0311A30FC0039
:104DC400F830FD00FD0BE42EFC0BE42E00002C005B
:104DD400AE018031C122A03106302C00AE008031FA
:104DE400C122A0312C00AE018031C122A0310C308F
:0C4DF4002C00AE008031C122A03108006C
:1050000001302B00A9000030AA00640088318227FB
:10501000A8312A006D08043A0130031D0030F10068
:105020006D08053A0130031D0030F0007108F004EE
:10503000031960282C00A4010130A500D130A6007E
:105040000130A7000A30A8008031B424A831023012
:105050002C00A4000130A500C630A6000130A70036
:105060000A30A8008031B424A83104302C00A400F8
:105070000130A500BB30A6000130A7000A30A8000F
:105080008031B424A83106302C00A4000130A500E2
:10509000DC30A6000130A7000A30A8008031B4241B
:1050A000A83164000530FB000F30FC00F130FD003A
:1050B000FD0B5828FC0B5828FB0B582864008C2843
:1050C0002A006D08003A03198C282C00A401A501C0
:1050D0003C30A6000230A7001130A8008031B42473
:1050E000A83101302C00A400A5012A30A60002300E
:1050F000A7001130A8008031B424A8316400053025
:10510000FB000F30FC00F130FD00FD0B8528FC0B8F
:105110008528FB0B852864008030F00080302B0050
:105120002A067002031D96282908003C0318E92C62
:10513000640000302A06031D9F2801302906031D44
:1051400075290A30F4000030F5002A005008F000FC
:105150005108F10098313F25A83170082C00A400B7
:105160007108A500AB30A6000530A7008031872567
:10517000A8312A006D08043A0130031D0030F10007
:105180006D08053A0130031D0030F0007108F0048D
:105190000319F4282C00A4011030A5002030A6002B
:1051A0000230A7000930A8008031B424A83164007F
:1051B00003302C00A4000630A500AB30A60005305B
:1051C000A7000630A8008031B424A8316400033061
:1051D000FB000830FC007730FD00FD0BED28FC0BD8
:1051E000ED28FB0BED2821292A006D08003A031950
:1051F00021292C00A4010130A500B130A600013006
:10520000A7000930A8008031B424A83101302C0057
:10521000A4000130A500AB30A6000530A700063081
:10522000A8008031B424A83164000330FB000830AA
:10523000FC007730FD00FD0B1B29FC0B1B29FB0B31
:105240001B290D302B00EB000030EC000230ED008C
:105250003230EE00EF018831C024A8317008031904
:105260004B29640080302A005106F0008030700223
:10527000031D3C29BE305002031842290A30D007D2
:105280000030D13D9C30FC00D730FD00FD0B46299D
:10529000FC0B462964000D302B00EB000030EC00C5
:1052A0000130ED003230EE00EF018831C024A8312A
:1052B00070080319752964008030F00080302A00DE
:1052C00051067002031D662950086E3C03186C29B4
:1052D0000A30D0020030D13B9C30FC00D730FD00BA
:1052E000FD0B7029FC0B7029640000302B002A068E
:1052F000031D7C2902302906031D532A0A30F400BD
:105300000030F50029006C08F0006D08F1009831BC
:105310003F25A83170082C00A4007108A500AB300F
:10532000A6000530A70080318725A8312A006D0826
:10533000043A0130031D0030F1006D08053A0130D8
:10534000031D0030F0007108F0040319D1292C006E
:10535000A4011030A5005B30A6000130A700073083
:10536000A8008031B424A831640003302C00A400CC
:105370000630A500AB30A6000530A7000630A80017
:105380008031B424A83164000330FB000830FC00F5
:105390007730FD00FD0BCA29FC0BCA29FB0BCA297B
:1053A000FE292A006D08003A0319FE292C00A401E9
:1053B0000130A5005330A6000130A7000730A80037
:1053C0008031B424A83101302C00A4000130A500A4
:1053D000AB30A6000530A7000630A8008031B42409
:1053E000A83164000330FB000830FC007730FD007A
:1053F000FD0BF829FC0BF829FB0BF8290D302B00CD
:10540000EB000030EC000230ED003230EE00EF0136
:105410008831C024A83170080319292A640080301B
:1054200029006D06F0008030033A7002031D1A2A2D
:1054300084306C020318202A6430EC070030ED3D04
:105440009C30FC00D730FD00FD0B242AFC0B242AE5
:1054500064000D302B00EB000030EC000130ED005B
:105460003230EE00EF018831C024A83170080319F2
:10547000532A64008030F000803029006D067002ED
:10548000031D442A6C08003C03184A2A6430EC02CD
:105490000030ED3B9C30FC00D730FD00FD0B4E2A68
:1054A000FC0B4E2A640000302B002A06031D5A2AEA
:1054B00005302906031D1A2B28002C082C00A400F7
:1054C000A501AB30A6000530A70080318725A831A3
:1054D0002A006D08043A0130031D0030F1006D0808
:1054E000053A0130031D0030F0007108F004031983
:1054F000A32A2C00A4011030A5006330A6000130BF
:10550000A7000730A8008031B424A831640003301C
:105510002C00A4000630A500AB30A6000530A70083
:105520000730A8008031B424A83164000330FB00A8
:105530000830FC007730FD00FD0B9C2AFC0B9C2AF8
:10554000FB0B9C2AD02A2A006D08003A0319D02AA6
:105550002C00A4010130A500A930A6000130A7004D
:105560000730A8008031B424A83101302C00A400F9
:105570000130A500AB30A6000530A7000630A8001A
:105580008031B424A83164000330FB000830FC00F3
:105590007730FD00FD0BCA2AFC0BCA2AFB0BCA2A76
:1055A0000D302B00EB000030EC000230ED0032300B
:1055B000EE00EF018831C024A83170080319F12AE8
:1055C00064005A3028002C020318E82A0A30AC077D
:1055D0009C30FC00D730FD00FD0BEC2AFC0BEC2AC4
:1055E00064000D302B00EB000030EC000130ED00CA
:1055F0003230EE00EF018831C024A8317008031961
:105600001A2B640028002C08003C0318112B0A30C8
:105610002C02F1007108AC000A3071020318112B42
:10562000AC019C30FC00D730FD00FD0B152BFC0BB2
:10563000152B640000302B002A06031D212B04309B
:105640002906031DD62B28006F082C00A400A501F5
:10565000AB30A6000530A70080318725A8312A008D
:105660006D08043A0130031D0030F1006D08053A61
:105670000130031D0030F0007108F0040319692B9C
:105680002C00A4011030A500A030A6000130A70016
:105690000830A8008031B424A83103302C00A400C5
:1056A0000630A500AB30A6000530A7000730A800E3
:1056B0008031B424A83164000330FB000830FC00C2
:1056C0007730FD00FD0B622BFC0B622BFB0B622B7A
:1056D000962B2A006D08003A0319962B2C00A40182
:1056E0000130A500E730A6000130A7000830A8006F
:1056F0008031B424A83101302C00A4000130A50071
:10570000AB30A6000530A7000630A8008031B424D5
:10571000A83164000330FB000830FC007730FD0046
:10572000FD0B902BFC0B902BFB0B902B0D302B00CB
:10573000EB000030EC000230ED003230EE00EF0103
:105740008831C024A83170080319B62B6400633077
:1057500028006F020318AD2BEF0A9C30FC00D730F5
:10576000FD00FD0BB12BFC0BB12B64000D302B00A9
:10577000EB000030EC000130ED003230EE00EF01C4
:105780008831C024A83170080319D62B6400280082
:105790006F08003C0318CD2BEF039C30FC00D73082
:1057A000FD00FD0BD12BFC0BD12B640000302B0036
:1057B0002A06031DDD2B03302906031DAF2C2A000A
:1057C0006D08043A0130031D0030F1006D08053A00
:1057D0000130031D0030F0007108F00403192D2C76
:1057E0002C00A4011030A500A830A6000230A700AC
:1057F0000830A8008031B424A83124006B08013A95
:10580000031D112C03302C00A4001030A500A03083
:10581000A6000230A7000730A8008031B424A831C8
:105820001F2C03302C00A4001030A500B130A600BE
:105830000230A7000730A8008031B424A83103301B
:10584000FB000830FC007730FD00FD0B252CFC0B25
:10585000252CFB0B252C64006E2C2A006D08003AC9
:1058600003196E2C2C00A4010130A500C930A6003C
:105870000230A7000830A8008031B424A8312400E9
:105880006B08013A031D532C01302C00A400013099
:10589000A500C130A6000230A7000730A800803163
:1058A000B424A831612C01302C00A4000130A500E3
:1058B000B930A6000230A7000730A8008031B42418
:1058C000A83164000330FB000830FC007730FD0095
:1058D000FD0B682CFC0B682CFB0B682C0D302B008F
:1058E000EB000030EC000230ED003230EE00EF0152
:1058F0008831C024A831700803198F2C640024005B
:105900006B08003A031D862C0130EB009C30FC0034
:10591000D730FD00FD0B8A2CFC0B8A2C64000D3067
:105920002B00EB000030EC000130ED003230EE00D7
:10593000EF018831C024A83170080319AF2C64002E
:1059400024006B08013A031DA62CEB019C30FC00DF
:10595000D730FD00FD0BAA2CFC0BAA2C64000D30E7
:105960002B00EB000030EC00ED013230EE00EF01D7
:105970008831C024A83170080319E82C0730FB00D7
:105980001730FC006A30FD00FD0BC42CFC0BC42C4E
:10599000FB0BC42C0000640020000D1CE32C2B002A
:1059A000A90A0319AA0A8030F00080302A06700282
:1059B000031DDC2C2908053C0318E22C0130A9004A
:1059C0000030AA00E72C2B006400A901AA016400A2
:1059D0008C280A30F4000030F5002A005008F0004E
:1059E0005108F10098313F25A83170082B00B40010
:1059F00098314327A8317008C8000430C700983197
:105A00000020A8310A30F4000030F50029006C08AD
:105A1000F0006D08F10098313F25A83170082B0087
:105A2000B40098314327A8317008C8000630C70079
:105A300098310020A83128002C082B00B4009831A0
:105A40004327A8317008C8003230C70098310020C1
:105A5000A83128006F082B00B40098314327A831E3
:105A60007008C8003430C70098310020A8312400E5
:105A70006B082B00B40098314327A8317008C80088
:105A80003330C70098310020A83128002C08F000DE
:105A90008031BE27A83127006208F4006308F500B2
:105AA0006408F6006508F70088319825A831803130
:105AB0005126A83170082800AD007108AE006400BE
:105AC00001302400EA00A0315723A8310B30FB003D
:105AD0002630FC005D30FD00FD0B6C2DFC0B6C2DA9
:105AE000FB0B6C2D0000000088310020A83108005D
:105AF00080310320A8312A003A082C00BD008031F3
:105B00002220A8312C00BD0180312220A831AE30E6
:105B10002C00BD0080312220A8312A003B08023A27
:105B20000130031D0030F1003B08033A0130031D32
:105B30000030F0007108F0040319542ED5302C0009
:105B4000BD0080312220A83180302C00BD00803182
:105B50002220A831A8302C00BD0080312220A8319D
:105B60003F302C00BD0080312220A831D3302C00E2
:105B7000BD0080312220A8312A003B08023A031DD3
:105B8000C82D37082C00BD0080312220A831D02D2F
:105B90002A0037081F3E2C00BD0080312220A8318A
:105BA00040302C00BD0080312220A8318D302C00E7
:105BB000BD0080312220A83114302C00BD0080317E
:105BC0002220A83181302C00BD0080312220A83154
:105BD000B4302C00BD0080312220A831D9302C00F7
:105BE000BD0080312220A83122302C00BD00803140
:105BF0002220A83120302C00BD0080312220A83185
:105C000002302C00BD0080312220A83121302C0030
:105C1000BD0080312220A8312C00BD01803122201E
:105C2000A8317F302C00BD0080312220A8312E30D9
:105C30002C00BD0080312220A8312A003B08023A06
:105C4000031D2F2EA0302C00BD0080312220A83152
:105C5000C0302C00BD0080312220A8313B2EA13065
:105C60002C00BD0080312220A831C8302C00BD009E
